:020000040800F2
:100000000090002021390008B9240008BB24000812
:1000100000000000000000000000000000000000E0
:10002000000000000000000000000000BD240008E7
:100030000000000000000000BF240008C1240008E8
:10004000713900080000000071390008713900089A
:1000500071390008C9240008713900087139000895
:10006000000000007139000871390008713900087A
:10007000713900087139000871390008000000006A
:1000800071390008713900087139000871390008A8
:100090007139000871390008713900087139000898
:1000A0007139000871390008713900087139000888
:0800B0007139000871390008E4
:1000B80010B5064C2378002B07D1054B002B02D036
:1000C800044800E000BF0123237010BDB8090020D8
:1000D80000000000E87F0008044B10B5002B03D097
:1000E8000349044800E000BF10BDC04600000000FE
:1000F800BC090020E87F0008002243088B4274D323
:1001080003098B425FD3030A8B4244D3030B8B4210
:1001180028D3030C8B420DD3FF22090212BA030C19
:100128008B4202D31212090265D0030B8B4219D3FA
:1001380000E0090AC30B8B4201D3CB03C01A52411A
:10014800830B8B4201D38B03C01A5241430B8B4262
:1001580001D34B03C01A5241030B8B4201D30B034B
:10016800C01A5241C30A8B4201D3CB02C01A524172
:10017800830A8B4201D38B02C01A5241430A8B4235
:1001880001D34B02C01A5241030A8B4201D30B021E
:10019800C01A5241CDD2C3098B4201D3CB01C01A38
:1001A800524183098B4201D38B01C01A5241430942
:1001B8008B4201D34B01C01A524103098B4201D330
:1001C8000B01C01A5241C3088B4201D3CB00C01A9D
:1001D800524183088B4201D38B00C01A5241430815
:1001E8008B4201D34B00C01A5241411A00D201463A
:1001F800524110467047FFE701B5002000F0F0F8C3
:1002080002BDC0460029F7D076E7704703460B4386
:100218007FD4002243088B4274D303098B425FD3F7
:10022800030A8B4244D3030B8B4228D3030C8B4223
:100238000DD3FF22090212BA030C8B4202D3121209
:10024800090265D0030B8B4219D300E0090AC30BDE
:100258008B4201D3CB03C01A5241830B8B4201D38B
:100268008B03C01A5241430B8B4201D34B03C01A74
:100278005241030B8B4201D30B03C01A5241C30AEC
:100288008B4201D3CB02C01A5241830A8B4201D35D
:100298008B02C01A5241430A8B4201D34B02C01A47
:1002A8005241030A8B4201D30B02C01A5241CDD2EC
:1002B800C3098B4201D3CB01C01A524183098B4237
:1002C80001D38B01C01A524143098B4201D34B0120
:1002D800C01A524103098B4201D30B01C01A524183
:1002E800C3088B4201D3CB00C01A524183088B420A
:1002F80001D38B00C01A524143088B4201D34B00F3
:10030800C01A5241411A00D2014652411046704764
:100318005DE0CA0F00D04942031000D34042534069
:1003280000229C4603098B422DD3030A8B4212D329
:10033800FC22890112BA030A8B420CD3890192115B
:100348008B4208D3890192118B4204D389013AD098
:10035800921100E08909C3098B4201D3CB01C01A6D
:10036800524183098B4201D38B01C01A5241430980
:100378008B4201D34B01C01A524103098B4201D36E
:100388000B01C01A5241C3088B4201D3CB00C01ADB
:10039800524183088B4201D38B00C01A5241D9D2F3
:1003A80043088B4201D34B00C01A5241411A00D274
:1003B8000146634652415B10104601D34042002B70
:1003C80000D54942704763465B1000D3404201B5EF
:1003D800002000F005F802BD0029F8D016E77047A4
:1003E8007047C0468446101C62468C46191C6346FA
:1003F80000E0C0461FB501F01FF8002801D4002115
:10040800C8421FBD10B500F069FF4042013010BD61
:1004180010B501F011F8002801DB002010BD012003
:1004280010BDC04610B501F007F8002801DD002016
:1004380010BD012010BDC04610B500F08BFF00288C
:1004480001DC002010BD012010BDC04610B500F031
:1004580081FF002801DA002010BD012010BDC04630
:10046800002B11D1002A0FD1002900D1002802D079
:100478000021C943081C07B4024802A14018029091
:1004880003BDC0465DFFFFFF03B4684601B502988F
:1004980000F006F8019B9E4602B00CBC7047C046AF
:1004A800F0B557464E464546DE46E0B504000D0019
:1004B8009246994683B08B4230D82DD04946504653
:1004C80001F0F0FE29000600200001F0EBFE331ACF
:1004D8009846203B9B4633D45A465346934042465F
:1004E8001F00534693401E00AF423AD8AF4200D196
:1004F80078E05B46A41BBD41002B00DA75E00022C2
:1005080000230092019301235A469340019301234B
:1005180042469340009328E08242CFD9002200232C
:10052800009201930C9B002B01D01C605D60009829
:10053800019903B03CBC90469946A246AB46F0BD33
:10054800424620239B1A5246DA40414613004A4647
:100558008A40170042461F43534693401E00AF424D
:10056800C4D900220023009201934346002BD9D01E
:10057800FB0772081A4346467B080EE0AB4201D1DE
:10058800A2420CD8A41A9D41012024196D410021D2
:10059800013E24184D41002E06D0AB42EED9013E53
:1005A80024196D41002EF8D1009801995B46001975
:1005B8006941002B24DB2B005A464446D3402A00CD
:1005C800E2401C005B461500002B2ADB26009E40FB
:1005D800330026004746BE403200801A99410090F9
:1005E80001919FE7A342BCD883E74246202300211C
:1005F8009B1A0022009101920122DA40019286E7BB
:10060800424620239B1A2A0046469A402300F3407C
:10061800444613432A00E2401C005B461500002BA9
:10062800D4DA42462F002023260097409B1ADE404A
:100638003B003343CDE7C046F0B54F46D646464665
:100648000D0001001800C0B517002B035A0A4B0F04
:100658001343CA00914602036E004100520AEC0F90
:100668007D0F1543760D490DC00F8246AC46FF003D
:10067800721A844200D198E0002A00DC81E0002947
:1006880000D1B6E0C9498E4200D172E1802128002C
:10069800090408438446382A00DD5EE11F2A00DD8C
:1006A800EEE1202039006546801A8740D140854018
:1006B8000D4339004F1EB9416746D7402943DB1B1C
:1006C8004A46551AA945894149425B1A9846434604
:1006D8001B0200D4CCE043465B025B0A98464346C3
:1006E800002B00D12CE1404601F0BEFD0100083985
:1006F800202228004346521A8B40D0408D400343A5
:100708008E4200DD17E18E1B721C1F2A00DDA7E157
:10071800202118002E00891A8D408840D640D340E9
:10072800691E8D4130439846002605436B0709D062
:100738000F232B40042B05D02B1DAB42AD416D423E
:10074800A8441D0043461B0200D494E0974B721C3A
:100758009A4200D19DE04146954BED0819400B00A7
:10076800520549075B0229431B0B520D120513431F
:10077800E4072343080019001CBC90469946A2468A
:10078800F0BD002A43D08A1B002E00D02AE14C4637
:100798001C4300D1D1E1541E012A00D11FE2834D30
:1007A800AA4200D172E2220023E1002A00DC98E08C
:1007B800002942D07D498E4200D1DAE0802128000C
:1007C800090408438446382A00DD29E11F2A00DC91
:1007D80087E1110065462039CD40202A04D0402009
:1007E8006146821A91400F4339004F1EB9410D43AB
:1007F8001BE12900394300D1B5E0511E012A00D17F
:10080800ABE16A48824200D1B2E10A0043E7694994
:10081800751C0D4200D0CFE0002E00D093E1494670
:10082800194300D1D1E16146394300D0E3E149469B
:100838005807C9080143DB0826E02900394300D1DD
:1008480091E0511E012A05D05848824200D18FE11B
:100858000A00B8E73D004D444D4589416344984638
:1008680049428844434602261B0200D5EBE0013E7C
:100878006B0700D05CE74346E9085A07114332008A
:10088800DB084A48824221D01B0352051B0B520D3C
:100898006CE70023002169E72A003A4369D04A46F9
:1008A8005807D108DA0880231B0308431A4207D0E7
:1008B8002900ED081D4203D12A00FF0848073843E4
:1008C800430FC1005B07C908194313000A001A4304
:1008D80000D113E28022120313431B03334A1B0B7C
:1008E80044E7002A4BD08A1B002E00D1E7E02F48AE
:1008F800814200D195E1802000040343382A00DDBD
:1009080043E11F2A00DDDBE120201D004E46801A4E
:100918008540D64035434E4686403000D340461E7B
:10092800B0419C440543ED19BD429B415B42634481
:1009380098460E007FE01E4A761A13409846F5E660
:10094800280001F091FC010018311F2900DCCFE6D6
:100958002B00083883400025D2E662463A4311004E
:100968004F1EB941ACE649465807C9080143DB08A0
:1009780087E749465A07C9081143DB08A6E70D4926
:10098800701C084200D0BBE0002E00D014E149469C
:10099800194300D175E12900394300D07EE1494669
:1009A8005807C9080143DB086EE7C046FF07000087
:1009B800FFFF7FFFFE0700004946CD1B6146581A1E
:1009C800A94589414942884601004046091A884696
:1009D800090200D5A6E04146294300D07FE600235E
:1009E800002451E7C74CA14200D1C7E08024240469
:1009F8002343382A54DC1F2A00DDCCE02024484653
:100A0800A41A1D004E46A040D640A5400400D3407D
:100A180062463543661EB441D31A9C46254344E0DA
:100A280062463A4315006F1EBD414D444D4589410C
:100A380049428846984443461B0200D418E7B14B04
:100A480001369E4249D04246AF4B01211A4013005D
:100A58006A080D401543D9075B0898460D4365E6BB
:100A680018001F3EF040202A03D040218A1A9340E4
:100A78001D43691E8D410023002698460543F7E66D
:100A8800110065462039CD40202A04D04020614617
:100A9800821A91400F4339004F1EB94129430FE68E
:100AA8004A4613431D006B1E9D417D1BAF429B416F
:100AB80062465B42D31A984654460E0007E64846FB
:100AC800184300D1B3E0501E012A00D10DE18D4D2D
:100AD800AA4200D1A5E0020010E73200002300215D
:100AE80044E620213800891A65468F408D40D04061
:100AF800791E8F4105433D436746D740DB1994E78C
:100B0800804A904200D1ECE039004944494592417D
:100B1800634452429B18DD0749085B089846060063
:100B28000D43A5E64A46BD1AAF428941624649428D
:100B3800D31A5B1A98465446D1E56C07F908214345
:100B4800EB0804009DE64A461A4375D161463943CD
:100B580014D1802300241B03BCE64A46D51BA945B3
:100B68008941624649429B1A5B1A98460126AEE5BE
:100B78004A46D1085A071143DB08A7E66346F90835
:100B88005A0754461143DB08A0E64A4613431D00A2
:100B98006B1E9D41C7E614001E00203CE640202A3B
:100BA80005D04024A21A93404A461A4391464D461E
:100BB8006B1E9D41354378E74A461A4300D06BE6E1
:100BC8006B07F9081943EB0880E66146394354D0AE
:100BD8006346F9085C072143DB08040054E64A46EB
:100BE800BD1AAF42894162464942D31A5B1A9846F8
:100BF800040001266BE54A46D51BA9458941624692
:100C080049429A1A521A9046120232D54A46BD1AD9
:100C1800AF42894162464942D31A5B1A984604009A
:100C280084E56346F9085A071143DB084EE6F908DC
:100C380068070143EB0824E662463A4300D198E688
:100C48004A46D1085A071143DA0880231B031A427F
:100C580008D06046C5081D4204D154462A00F90848
:100C6800430719434B0FC9005B07C9081943130011
:100C78002CE64146294300D0FAE500230A00002467
:100C880002E66B07F9081943EB08FDE56346F90826
:100C98005B07194363460400DB0817E63D004D4433
:100CA80063444D45894198464942884443461B025E
:100CB80000D4DDE54246144B01261A409046D7E59C
:100CC80010001E002038C640202A05D04020821A75
:100CD80093404A461A4391464D466B1E9D41354303
:100CE80021E602000023002140E54A46D519BD420D
:100CF80089416344984649428844B3E50021014A42
:100D08000B0033E5FF070000FFFF7FFFF0B55746F4
:100D18004E464546DE46E0B5814605000C034800D0
:100D280092461F0085B0240B400DCE0F002859D0E5
:100D3800874B984200D198E06B0FE4001C43802356
:100D48001B0423439846834BED009B46002399469A
:100D5800834400933C037B005046240B5B0DFF0F3C
:100D6800002B67D07A4A934218D07A49420F8C46B2
:100D7800E40059461443802263441204CB1A1443F6
:100D88009B46C200002033007B409A464B460F2BFF
:100D980000D9EFE070499B00CB589F466F4B5246F5
:100DA8009C462243E344002A00D095E049460223AA
:100DB8001943894600240220E5E700230024002582
:100DC80052461B052343D20713432800190005B0D8
:100DD8003CBC90469946A246AB46F0BD002400258F
:100DE8005B4BEDE74B462343984600D189E0002C46
:100DF80000D1E0E1200001F037FA010002000B39D0
:100E08001D235B1A49461000D940083884400B005E
:100E18004D4623439846854051483C03831A9B46D8
:100E28000023994600937B005046240B5B0DFF0F6F
:100E3800002B97D15246224355D0002C00D1CAE14D
:100E4800200001F011FA02000B3A1D2301009B1A41
:100E580052460839DA408C40144352468A40414B86
:100E680058449B46834400208DE74B4623439846CD
:100E780040D108239946063B00258346009369E73D
:100E8800B246009B022BA9D0032B00D111E2012B03
:100E980093D0354A5A44002A00DC3CE16B0700D065
:100EA800A7E1ED084346DB0106D542462F4B1A4021
:100EB80090468022D2005A442D4B9A428EDC4346FB
:100EC800520558075C020543240B530D78E7BA46D0
:100ED800A04615000090D4E74A4603231A439146DA
:100EE800032052464FE74946012319438946002407
:100EF800012048E70C239946093BA0468346009306
:100F080028E70423994600239B46013300250093D4
:100F180020E7002380249A4600250D4B24034FE741
:100F2800802341461B03194208D01C4206D11C43AA
:100F38002403BA461500064B240B41E78024434698
:100F480024031C432403B246014B240B38E7C04654
:100F5800FF07000001FCFFFF2880000801F8FFFFE1
:100F68000DFCFFFFF3030000FF030000FFFFFFFE7F
:100F7800FE070000444500D216E100D111E101232B
:100F88005B429C462E0040460025E3442302140E93
:100F98001C431B0C994623041F0C1202494600925D
:100FA8000197FFF72FF902007A430B04310C8046B2
:100FB80019438A420BD901235B429C460919E04434
:100FC8008C4204D88A4202D9831E98460919881A85
:100FD8004946FFF717F909048C4631046646019A19
:100FE800090C4243030031438A4204D90919013BE1
:100FF8008C4200D811E1891A4246009E12041A4315
:10100800330C1F00100C9046029313043204160C84
:1010180032001B0C5A4303967B4346437843170C14
:10102800BC469B1963449E4203D980267602B44687
:1010380060441E0C301816041B04360C9E1981429D
:1010480000D29CE000D197E0AE1B091AB54280415E
:101058004042081A844200D111E14946FFF7D2F80C
:10106800019A0B044243310C050019438A4207D9FF
:101078000919013D8C4203D88A4201D9851E0919F4
:10108800881A4946FFF7BEF809048C4631046646BB
:10109800019A090C4243030031438A4207D90919CE
:1010A800013B8C4203D88A4201D9831E0919039E49
:1010B800891A32002D041D43029F2B041B0C5A432E
:1010C8007B439C46280C4643130CB4446344784342
:1010D8009E4203D980267602B44660441E0C120450
:1010E8001B04120C30189B18814206D302D001232E
:1010F8001D43CEE6002B00D1CBE661186E1EA1423F
:1011080000D2A4E0814200D2C9E000D1D9E0350084
:10111800EDE701256D420121891A382900DD4CE6E9
:101128001F2900DC7FE01F235B429A1A4346D34005
:10113800202904D04446654A5A44944025436A1EEF
:10114800954107222B43150000241D401A4200D167
:10115800A1E00F2200241A40042A00D198E01A1DA9
:101168009A429B415B42E4181300220200D48FE0AC
:1011780001230024002523E6B54200D364E7434653
:101188005A1E009B9C4665441F009D429B415B4242
:101198001B19C9188C423AD2884263D860D090464D
:1011A80052E7AA4200D9EAE64346DE0758086B0828
:1011B8001E43ED07EAE6484601F056F80100020032
:1011C800153120321C2900DC1AE64B4608388340CA
:1011D8000025984620E601F047F803001A0015326A
:1011E80020301C2A00DC30E65446083B00229C4094
:1011F80035E60F232B40042B00D152E605235B4232
:10120800AB429B4104355B42ED0898444AE68C4268
:10121800C5D1AF42C0D9904616E78A4200D8EAE65F
:10122800831E0919E7E62A4A28005A44434695408E
:101238009340C8406A1E9541444603432B43CC4023
:101248005A0792D00F221A40042A88D18DE7350018
:10125800814200D04BE7009A934200D047E718E656
:10126800AE429CD902235B429C46009BE0449C46CC
:1012780065449D429B415B421B19C918E4E6154A27
:101288005A44002A00DC44E701230025984409E673
:1012980065076402240BDB081D43002390E5009ECC
:1012A800023D7200B242BF417F423C1909190092C7
:1012B800CEE78024434624031C432403064B240B17
:1012C8007EE5009A9A42EAD33500C4E73E0400005E
:1012D8001E040000FF030000FF070000F0B54F46A2
:1012E8004646D646944691461A03120B184DC0B589
:1012F8004C000F0392465A00060080463F0B01201F
:10130800640DC90F520DDB0FAC420AD0AA4203D0BC
:10131800944201D157450DD01CBC90469946A2462F
:10132800F0BD3D003543F7D1A242F5D1524665469E
:101338002A43F1D10120C845EED1994206D0002CAC
:10134800EAD13E433000461EB041E5E70020E3E71E
:10135800FF070000F0B54E4645465746DE460400F6
:101368001800E0B516001B031B0B324D0F034A0093
:1013780099464300A446B0463F0B520DC90F5B0D7A
:10138800C00FAA4229D0AB4218D0002A2AD13C4328
:10139800A34665426541002B02D14C46264327D01F
:1013A800002D15D1814228D002200139084001388A
:1013B8003CBC90469946A246AB46F0BD4D462E43EE
:1013C8002FD1002AEED13C4365426541002DE9D07A
:1013D8000028EDD101204042EAE73D00254320D115
:1013E8009342EBD0002BDDD14C462643DAD1DBE724
:1013F8005B460020002BDBD0D6E79A420ADCE7DB0D
:101408004F45D1D810D000204F45D1D20029E1D086
:101418000800CDE7434258410223404218400138B2
:10142800C6E702204042C3E7C445BDD80020C445F2
:10143800BED2EBE7FF070000F0B54E4645465746DB
:10144800DE4604001800E0B516001B031B0B314DE7
:101458000F034A0099464300A446B0463F0B520D7D
:10146800C90F5B0DC00FAA4211D0AB4214D0002A9D
:101478002FD13C43A34665426541002B14D14C460D
:10148800264311D15B460020002B17D010E03D0009
:10149800254312D193421CD14D462E430DD1002A2B
:1014A80004D13C4365426541002D0DD1814216D0DF
:1014B800022001390840013800E002203CBC904677
:1014C8009946A246AB46F0BD0028F7D1012040421C
:1014D800F4E7002BEAD14C462643E7D1E8E79A42E5
:1014E80006DD434258410223404218400138E5E7EF
:1014F8009A42E9DB4F45DBD806D000204F45DDD2C4
:101508000029E3D00800D9E7C445D1D80020C44554
:10151800D4D2F5E7FF070000F0B557464E464546DA
:10152800DE46E0B598460C034B000600924687B0AD
:10153800240B5B0DCF0F002B6CD0DD4A934200D1FA
:1015480086E0420FE4001443802212041443D94A6F
:10155800C500944663440093002399469B4643463E
:1015680042461E03D20F5B0050469046360B5B0D79
:1015780000D178E0CE4A93421DD0CE49420F8C4626
:1015880000996344F6008C46164380229C4412045A
:1015980063461643C2000020009300994346013178
:1015A8008C4649467B4001930F2900D97EE0C24B07
:1015B800890059588F465246009B324300D056E165
:1015C800BB4900268C4663444946009302231943CD
:1015D80089460220E1E7434601933400150083461B
:1015E8005B46022B5ED0032B00D1F3E1012B00D028
:1015F80018E1002200240025019B12052243DB0785
:101608001A432800110007B03CBC90469946A246F0
:10161800AB46F0BD2500054300D141E1002C00D1C7
:10162800ADE1200000F020FE010002000B391D236F
:1016380010005B1A3100350008388440D9408540D5
:101648000C439E48831A0093002399469B4686E7DD
:101658000500254300D01CE1082200930223002442
:1016680091469B467BE75246324300D10AE1002E61
:1016780000D176E1300000F0F7FD02000B3A1D239F
:1016880001009B1A52460839DA408E4016435246EA
:101698008A40009B8949181A03008C46634400203D
:1016A80000937AE700240025814AA5E72F0C2D0432
:1016B8002D0C2B00110C1204120C534398461300E6
:1016C80028007B43994648434844834640460B00DC
:1016D800000C824658467B4350440293814506D904
:1016E8009A4680235B029946CA4453460293030CE8
:1016F8009B4643461B0400041B0C984603004344C6
:101708000493330C99462B003604360C73439846E1
:1017180033007B439A464B465D435F4343465544FB
:10172800180C4019824503D980235B029A46574416
:10173800050CEB19059343461D042D0C00044019B4
:10174800250C2404240C270057436A4390462A009A
:101758003B0C9A464A43614341445144834488457B
:1017680003D980235B02984642443F040B0C3F0C8C
:101778000904C919270098464B4677435C436E43D2
:101788005D433B0C9946A4194C4442440395A64238
:1017980004D980235B02984645440395029B3F0485
:1017A8005B441E008342804123049846059B3F0CFE
:1017B8004744984676188E428941474440423D182E
:1017C800A846934649428A46C3449F42BF41804542
:1017D8008041039BDA449846534640427F42074380
:1017E800240C934592418A4589413F19DC0D049B9D
:1017F80075021D43681E85415346524249420A43B9
:10180800BF184744F60D7F0235435A023C4315433F
:10181800FB0100D4C1E001216A080D401543E2072D
:101828001543640826496144002956DD6B0709D031
:101838000F222A40042A05D02A1DAA42AD416D4232
:1018480064191500E30104D580211E4AC90014401B
:1018580061441D4A914200DD24E76207ED086402F5
:1018680049051543240B4A0DC6E60197B8E6104A08
:101878000320944663444A46009303231A4391463F
:1018880052468AE649460123194389460026012023
:1018980083E60C2200930323050091469B465EE6EF
:1018A8000423994600230093013300249B4656E6FF
:1018B800FF07000001FCFFFF688000080DFCFFFF28
:1018C800FF030000FFFFFFFEFE0700000023802447
:1018D8000025444A019324038EE60120401A382843
:1018E80000DD86E61F285BDD1F2223005242511AC5
:1018F800CB401900202803D03B4A6244944025433A
:101908006A1E95412A000A4307210D00002415404C
:1019180011425BD00F2100241140042953D0111D1E
:10192800914292415242A4180A0023024BD5012247
:101938000024002560E680231B031C4209D01E42B8
:1019480007D133431C0343461500240B254A019352
:1019580052E68022120314432403224A240B0197DF
:101968004AE600F081FC03001A00153220301C2AD8
:1019780000DC84E65646083B00229E4089E600F0DB
:1019880073FC01000200153120321C2900DC4EE6F0
:10199800340008380025844053E6009B9C4641E704
:1019A8001249220061442E008D408A40C640691EBB
:1019B8008D4132432A43C4405307B6D00F2111400A
:1019C8000429ACD1B1E765076402240BD20815439A
:1019D800002211E68022120314432403014A240B37
:1019E8000AE6C046FF0700003E0400001E0400008F
:1019F800F8B557464E464546DE460400E0B51F009A
:101A080010000B03620F4E00CD0F5B0A390313431E
:101A1800490AE200440F2143C24C91469246C00055
:101A28007A008046760D520DFF0FA24200D1B4E035
:101A380001246740BB46BD4200D188E0B41AA446E1
:101A4800002C00DCB2E0002A00D1C5E0B54A96427D
:101A580000D18BE28022120411436246382A00DD4D
:101A6800A1E11F2A00DD16E220270C00BF1ABC40A6
:101A78000200A0466446B840E240444614430200CF
:101A8800501E82416046C14022435B1A49468C1A67
:101A9800A145924152429B1A984643461B0200D4E4
:101AA80017E143465B025B0A98464346002B00D188
:101AB8006CE1404600F0D8FB0200083A20212000E3
:101AC8004346891A9340C84094400343964200DD38
:101AD80057E1961B711C1F2900DDCBE1202218005D
:101AE8002600521A94409040CE40CB40621E94414A
:101AF8003043984600260443630709D00F23234048
:101B0800042B05D0231DA342A4416442A0441C0019
:101B180043461B0200D4DFE0824B01369E4200D1CF
:101B2800FBE04246804BE4081A4013007105520757
:101B38005B0222431B0B490D0905ED071943294395
:101B480010003CBC90469946A246AB46F8BDB41A74
:101B5800A446002C58DD002A00D19EE0714A964226
:101B680000D13BE18022120411436246382A00DD8D
:101B7800C1E01F2A00DCBBE10C00203AD44022005F
:101B88006446202C04D040273F1BB94008438046B8
:101B98004446611E8C411443B1E00C0004432AD032
:101BA800BB46BD422DD0614CA446B4446446002CCB
:101BB8005CD0941BA446002E00D015E14D461D4371
:101BC80000D1C3E1651E012C00D10CE2554EB44290
:101BD80000D1F8E1AC460EE10A00024300D136E13B
:101BE8002200013A012C00D1C6E14E4CA44500D197
:101BF800F4E0944631E701246740BB46BD4200D07B
:101C08001CE74A4CA446B4446446002C00D1CFE0FB
:101C1800941BA446002E00D15CE1424EB24200D192
:101C2800ECE18026360433436446382C00DDB3E10A
:101C38001F2C00DD38E22026361B1C00B4404F461E
:101C4800A0466446E74044463C434F46B7403E0002
:101C5800771EBE4134436646F340C91824188442AF
:101C68009B415B429846160088444EE0304A741CFB
:101C7800144200D0D6E04A461A43002E00D05BE159
:101C8800002A00D1A5E10A00024300D0BBE14A4680
:101C98005907D2080A43DB0827E00A00024300D1AB
:101CA80074E12200013A012C05D01E4CA44500D154
:101CB80094E0944659E74844484592415B18984651
:101CC800040052429044434602261B0200D5C4E059
:101CD800013E630700D011E74346B4465907E208BE
:101CE8000A43DB080F498C4540D061461B03490570
:101CF8001B0B490D20E701430C00611E8C414C442D
:101D08004C45924152429046984443461B02E0D5C6
:101D1800044B01369E4200D09FE031000023002290
:101D28000AE7C046FF070000FFFF7FFF01F8FFFF3B
:101D3800FE070000002A00D160E10A0002434DD0EE
:101D48004A465C07D20822438024DB082403234246
:101D580007D0CE08264204D15D463300C2084907A1
:101D68000A43510FD200D20849070A431100194308
:101D780000D1C8E1802109030B431B03D5491B0B84
:101D8800DAE6D549B61A0B409846B5E6200000F0C9
:101D98006BFA020018321F2A00DC8FE6230008388D
:101DA8008340002492E608430200501E82416DE6FB
:101DB800CA4C721C224200D0ADE04A461A43002E9B
:101DC800B8D1002A00D158E10A00024300D059E1F5
:101DD8004A465907D2080A43DB0886E74A465907A4
:101DE800D2080A43DB08C1E7BA4DAA4200D11EE176
:101DF80080252D042B436446382C5DDC1F2C00DD28
:101E0800D0E0202567462D1B4E461C00FE40AC4006
:101E180034434E46AE403500FB406E1EB541C91AEC
:101E28002C434EE04A46141AA1459241524290462C
:101E38005F1A3A004746D21B9046120200D58BE043
:101E48004246224300D030E6002300254DE74A46AB
:101E58005907D2080A43DB0844E742469E4B61080B
:101E68001A401300012214400C43DA075B08984615
:101E7800144341E61A001F3EF2401600202903D001
:101E88004022511A8B401C43621E94410023344364
:101E9800984600261DE70C00203AD44022006446EC
:101EA800202C04D040273F1BB940084380464446B5
:101EB800611E8C412243E9E54C4623431C00631E06
:101EC8009C41041BA0429B415B42CB1A98465D464D
:101ED8001600E2E54E461E4300D1AEE0661E012C18
:101EE80000D1FDE07B4FBC4200D107E1B4469BE640
:101EF80064462022121B0C00944007009040A04624
:101F08006446421E90416246E7404446D1403C4305
:101F180004435B18F3E66F4CA24200D1D5E0484475
:101F28005B184845894149425B18DC0740085B0853
:101F3800984616000443CCE6002A00D082E00A0046
:101F4800024340D1802300251B0313E74B07C20837
:101F58001A435D46CB08C5E64A46841AA042924118
:101F6800CB1A52429B1A98465D469EE54A46590747
:101F7800D2080A43DB08F9E64A46141AA1459241F9
:101F88005B1A52429B1A9846012686E54A4659072B
:101F9800D2080A43DB08A5E64C4623431C00631E0F
:101FA8009C415BE665461E00203DEE40202C05D096
:101FB80040252D1BAB404C461C43A2465446631E8D
:101FC8009C4134437DE74B07C2081A435D46CB0862
:101FD800CCE60A00024300D136E74B07C2081A4391
:101FE8005D46CB0881E64A46841AA0429241CB1A44
:101FF80052429B1A98465D4601264EE54B07C20899
:102008001A43CB08B2E64A46141AA14592415F1A10
:102018005242BA1A904612026BD54A46841AA04216
:102028009241CB1A52429B1A98465D4664E54B078B
:10203800C2081A435D46CB0898E64B07C2081A4304
:10204800CB084FE60A00024390D04A465C07D20804
:1020580014438022DB081203134208D0CE0816422C
:1020680005D1C0084907084304005D463300610FE5
:10207800E2004907D2080A4378E64B07C2081A4328
:10208800CB0832E648445B1848459241984652428C
:102098009044434604001B0200D41AE642460E4B05
:1020A80001261A40904614E666461F00203EF74077
:1020B800202C05D04026361BB3404C461C43A24674
:1020C8005446631E9C413C43C8E51100002300228E
:1020D80032E5C046FF070000FFFF7FFFFE07000054
:1020E8004A461418844292415B18984652429044DA
:1020F800E9E54246224300D1A6E6EAE54B07C208D5
:102108001A43CB0832E600220149130014E5C04601
:10211800FF07000070B505000C480C0316004900C5
:102128001A035B00240B490D120B5B0D814208D08A
:10213800064900208B4203D132431000421E9041D1
:1021480070BD01202C43FBD1F2E7C046FF07000019
:102158000A0030B5134C530009030500090B002091
:102168005B0DD20FA34204DD0F48834202DD0F4B03
:10217800D01830BD8020400301430D48C01A1F28E5
:1021880008DD0C48C31AD9400B005842002AF0D188
:102198001800EEE7084CC540A446634499400B007C
:1021A8002B43F2E7FE0300001D040000FFFFFF7F42
:1021B8003304000013040000EDFBFFFF70B5002896
:1021C80016D0C317C5185D40C40F280000F04CF89E
:1021D800114A121A0A2816DC03002E0015339E40F5
:1021E8000B23181AC54053052D032D0B5B0D03E077
:1021F80000240023002500261B052B43E407234366
:102208003000190070BD0B38854053052D0300269A
:102218002D0B5B0DF0E7C0461E04000010B5041E30
:1022280010D000F021F80F4B1B1A0A2811DC0B22E2
:102238002100121AD14015300A035B058440120BA5
:102248005B0D01E0002300221B0513432000190049
:1022580010BD22000B3882405B0512030024120BCC
:102268005B0DF1E71E0400001C2101231B049842AA
:1022780001D3000C10391B0A984201D3000A08390F
:102288001B09984201D30009043902A2105C4018C6
:102298007047C0460403020201010101000000006A
:1022A8000000000010B5002903D1FFF7DDFF203042
:1022B80002E0081CFFF7D8FF10BDC046F0B589B092
:1022C8001422002103A801F079FB1E4B596B04224C
:1022D80011435963596B0A400092009A5A6B2026A1
:1022E80032435A635A6B32400192019A5A6B012465
:1022F80022435A635B6B23400293029BA025ED05A2
:1023080000222021280000F0F7FA03940E4B0493D2
:102318000027059703A9280000F030FA03960494D3
:1023280005970223069303A9280000F027FA002244
:102338000021052000F0CAF9052000F0F7F909B0DE
:10234800F0BDC0460010024000001110024A136898
:10235800013313607047C046D409002072B6FEE707
:1023680000B599B0342200210BA801F027FB1022F8
:10237800002107A801F022FB1C220021684601F079
:102388001DFB8020800000F0DFFA02230B938022DF
:1023980052000E9200220F92402110911293139333
:1023A80014920633159380239B02169380239B0572
:1023B80017930BA800F0F2FA002817D10723079308
:1023C800053B0893002309930A93022107A800F00C
:1023D80097FD00280CD10223009306330293684628
:1023E80000F06EFE002805D119B000BDFFF7B6FF5A
:1023F800FFF7B4FFFFF7B2FF30B589B000F022F95C
:10240800FFF7AEFFFFF75AFF00F086F86C46164B51
:10241800200026CB26C01222002101F0CFFA20008E
:1024280001F040FB82B2FF232100104801F0DAF8E6
:10243800A0202021C00500F065FA0D4C0023236080
:10244800FA20400000F024F9226852000949684641
:1024580001F008FB684601F025FB82B2FF236946BC
:10246800024801F0BFF8E3E700800008DC0900201B
:10247800D4090020A880000800B583B00B4B196C64
:10248800012211431964196C0A400092009ADA6B10
:10249800802149050A43DA63DB6B0B400193019BFA
:1024A800C020C00000F006F903B000BD00100240D3
:1024B800FEE7FEE77047704710B500F0D7F810BD8B
:1024C80010B5012000F028FA10BD000010B5030077
:1024D8000B4A1268002A08D0094A1068C3186A46CD
:1024E800934206D8064A136010BD054A0549116093
:1024F800F2E701F03BFA0C23036001204042F3E7C6
:10250800D8090020D00A0020024B802212059A60C8
:102518007047C04600ED00E010B51948194B03603C
:10252800E1235B02436000238360C36003610C22E4
:1025380042618361C36103624362836201F012F9FD
:10254800002811D100210E4801F098F900280ED179
:1025580000210B4801F0B8F900280BD1084801F018
:102568006DF9002809D110BDFFF7F8FEEAE7FFF77B
:10257800F5FEEDE7FFF7F2FEF0E7FFF7EFFEF2E713
:10258800DC0900200044004010B588B00400142283
:10259800002103A801F012FA2268124B9A4201D0D6
:1025A80008B010BD104BD96B802080020143D9635D
:1025B800DA6B02400192019A596B01221143596367
:1025C8005B6B13400293029B0C2303930A3B049317
:1025D8000592002306930792A02003A9C00500F0E6
:1025E800CDF8DDE7004400400010024010B50400BB
:1025F800114B1978002901D1012010BDFA20800063
:10260800FDF77AFD01000D4B1868FDF775FD00F028
:1026180099F800280DD1032C01D90120EDE70130EC
:1026280000222100404200F051F8054B1C600020B8
:10263800E3E70120E1E7C046040000200000002095
:102648000800002010B5084A116880235B000B437E
:1026580013600020FFF7CAFF041E02D001242000E7
:1026680010BDFFF709FFFAE700200240034B1B7873
:10267800034A11685B1813607047C04604000020C5
:102688006C0A0020014B18687047C0466C0A00208D
:1026980070B50400FFF7F6FF0500631C02D0044B79
:1026A8001B78E418FFF7EEFF401BA042FAD370BD79
:1026B80004000020034A136803490B4003431360D6
:1026C8007047C04600000140FFF9FFFF70B50028C1
:1026D80011DB8308134EC0339B009D59032420400F
:1026E800C000FF2214008440A54389010A408240AB
:1026F8002A439A5170BD0F230340083B9B080633B9
:102708009B00094A944663445C6803221040C00059
:10271800FC3215008540AC4389010A4082402243BF
:102728005A60E7E700E100E000ED00E0002805DB83
:102738001F2318401E3B8340014A13607047C04660
:1027480000E100E0013880235B0498420FD2094A77
:1027580050600948036A1B021B0AC02109060B4383
:102768000362002393600733136000207047012041
:10277800FCE7C04610E000E000ED00E0F0B5CE4612
:10278800474680B5002336E0032600E00026A64031
:1027980034003C43544E1832920094518022B4586D
:1027A800EA432600AE434F68FF0301D52C432600B9
:1027B8004D4C8027E6518426A459260016404F68C0
:1027C800BF0301D52C432600474C8427E6512468D3
:1027D800260016404F68FF0201D52C432600424CC4
:1027E8002660646822404E68B60201D52A0022435A
:1027F8003D4C626001330C682200DA406FD0012240
:102808009A40250015401442F4D04C68661E012EEB
:1028180003D9112C01D0122C12D184685F00032631
:10282800BE40B4432600CC68BC403443846044684E
:1028380094434A681609012232409A402243426072
:10284800C4685F000326BE40F2439446B4432600A2
:102858008C68BC403443C4604A68022A01D0122AFA
:1028680010D1DE080836B2009146145807221A40E3
:1028780092000F269640B4430E69964032002243D8
:102888004C46225004686246144003224E68324087
:10289800BA40224302604A68D200ABD59A081400B5
:1028A8001834A400104EA75903241C40E4000F2636
:1028B800A640B743A026F605B04200D166E70B4E06
:1028C800B04208D00A4EB04207D00A4EB04200D1FA
:1028D8005AE705265BE7012659E7022657E70CBCAD
:1028E80090469946F0BDC0460018024000040050CA
:1028F80000080050000C0050002A01D08161704788
:102908008162FCE7426913000B401B0491431943A1
:10291800816170477047000010B50400094BDB68FF
:10292800184204D1074B1B69234205D110BD054B42
:10293800D860FFF70BFDF5E7024B1C612000FFF79D
:10294800E9FFF3E70018024010B5104A1368104970
:102958000B400343136080239B00984201D0002062
:1029680010BD0C4B1B685800C01840000A49FDF701
:10297800C3FB0130054B5B695B0503D5002803D019
:102988000138F7E70020EBE70320E9E70070004093
:10299800FFF9FFFF0000002040420F0070B582B031
:1029A800041E00D12CE20368DB0739D5C14A9168BF
:1029B80038230B40D16803220A40102B26D0082B5D
:1029C80026D063688022520293427FD0A022D2028E
:1029D800934200D181E0B74B1A68B7490A401A60A0
:1029E8001A68B6490A401A606368002B00D180E073
:1029F800FFF748FE0500AF4B1B689B0310D4FFF799
:102A080041FE401B6428F6D90320FAE1032AD6D1F7
:102A1800A84B1B689B0303D56368002B00D1F2E128
:102A280023689B0731D5A34A936838210B40D168A6
:102A380003220A40102B6AD0002B6BD19D4A1268E2
:102A4800520503D5E268002A00D1DEE199484268C0
:102A58009B490A40616909020A434260002B0DD173
:102A6800036898490B4021690B4303600368DB0A3C
:102A780007221A40944BD340944A1360944B186829
:102A8800FFF7B4FD002800D0C1E123681B0700D47C
:102A980081E0884B9A6838231340182B73D0A369B8
:102AA800002B00D1B4E0834A136E01210B43136657
:102AB800FFF7E8FD05007F4B1B6E9B076BD4FFF704
:102AC800E1FD401B0228F6D903209AE1794A1168F2
:102AD80080235B020B43136086E7764B19688022DC
:102AE800D2020A431A601968802252020A431A6005
:102AF8007AE7FFF7C7FD05006E4B1B689B038FD570
:102B0800FFF7C0FD401B6428F6D9032079E1022AAB
:102B180092D193E7E368002B22D0664A136869498B
:102B28000B4021690B431360116880235B000B4342
:102B38001360FFF7A7FD05005E4B1B685B0506D415
:102B4800FFF7A0FD401B0228F6D9032059E1594997
:102B58004B685B4A13406269120213434B6094E767
:102B6800544A13685B490B401360FFF78BFD05005F
:102B7800504B1B685B0588D5FFF784FD401B022876
:102B8800F6D903203DE14B4B1B6E9B0703D5A36988
:102B9800002B00D13DE123685B0700D4A2E0454B40
:102BA8009A6838231340202B45D0424BDB6BDB005F
:102BB8004AD4404AD16B802040050143D163D36B8E
:102BC80003400193019B0125434B1B68DB053DD561
:102BD800A368012B4ED0052B52D0364BDA6D01215C
:102BE8008A43DA65DA6D03318A43DA65A368002B14
:102BF80050D0FFF747FD06002E4BDB6D9B076FD4C7
:102C0800FFF740FD801B354B9842F5D90320F8E0CB
:102C1800284A136E01218B431366FFF733FD050025
:102C2800244B1B6E9B07B6D5FFF72CFD401B0228D3
:102C3800F6D90320E5E01F4BDB6D9B0752D5A3684F
:102C4800002B4FD10120DCE00025BDE7224A1168A6
:102C580080235B000B431360FFF714FD06001E4B37
:102C68001B68DB05B4D4FFF70DFD801B0228F6D9DD
:102C78000320C6E00F4AD36D01210B43D365B5E7A6
:102C88000C4BDA6D04210A43DA65DA6D03390A431D
:102C9800DA65ABE7FFF7F6FC0600064BDB6D9B0732
:102CA8001ED5FFF7EFFC801B0C4B9842F5D903208B
:102CB800A7E0C04600100240FFFFFEFFFFFFFBFF3A
:102CC800FF80FFFFFFC7FFFF0024F4000000002083
:102CD80008000020FFFEFFFF00700040881300007E
:102CE800012D26D0E369002B00D194E0514A916868
:102CF80038220A40102A61D0022B20D04D4B1A6886
:102D08004D490A401A60DA6803218A43DA60DA68B2
:102D18004A490A40DA60FFF7B5FC0400454B1B68D6
:102D28009B0149D5FFF7AEFC001B0228F6D903200A
:102D380067E0404AD36B42490B40D363D2E73D4A30
:102D480013683D490B401360FFF79CFC0500394BA5
:102D58001B689B0106D5FFF795FC401B0228F6D996
:102D680003204EE0334AD36836491940236A606A23
:102D78000343A06A00020343E06A0343206B034352
:102D88000B43D360116880235B040B431360D16845
:102D980080235B050B43D360FFF774FC0400254BCD
:102DA8001B689B0106D4FFF76DFC001B0228F6D9AF
:102DB800032026E0002024E0002022E0012B2CD074
:102DC8001C4BDA6803231340216A8B4227D17023F6
:102DD8001340616A8B4224D1FE21C9011140A36AC4
:102DE8001B0299421FD1F8239B031340E16A8B42CF
:102DF8001BD1520F5207236B9A4218D1002000E0D2
:102E0800012002B070BD0120FBE70120F9E7012095
:102E1800F7E70120F5E70020F3E70120F1E70120BB
:102E2800EFE70120EDE70120EBE70120E9E70120CA
:102E3800E7E7C04600100240FFFFFFFEFFFFFEEF7E
:102E4800FFFFFFEF8C80C11F10B52A4B9B6838220B
:102E58001A4207D1274B1A68D20A0723134026487B
:102E6800D84010BD234B9A6838231340082B3BD019
:102E7800204B9A6838231340102B0DD01D4B9A68AD
:102E880038231340202B31D01A4B9A68382313402B
:102E9800182B26D00020E4E7164AD1680D3B0B40DA
:102EA800D2681209072111400131032B0FD01248B3
:102EB800FDF722F90F4BDA68120A7F2313405843B3
:102EC8000C4BD968490F0131FDF716F9C9E70B48D2
:102ED800FDF712F9074BDA68120A7F2313405843AB
:102EE800EEE7FA20C001BCE70448BAE780200002F8
:102EF800B7E7C046001002400024F40000127A0030
:102F080070B504000D00002800D1AAE0574B1A68DC
:102F1800072313408B4221D323689A070ED55B07FA
:102F280005D5534A9168E023DB010B439360504A6F
:102F3800936850490B40A1680B4393602368DB07F3
:102F480054D56368012B20D0022B3BD0002B3FD1F6
:102F5800474A126852051CD401206AE0434A1368A4
:102F680007218B432B431360FFF78CFB06003F4B75
:102F78001A6807231340AB42CED0FFF783FB801BB0
:102F88003D4A9042F3D9032053E0394A126892032C
:102F980069D537498A680720824313438B60FFF756
:102FA80071FB0600324B9B6838221A406368DB00CD
:102FB8009A421BD0FFF766FB801B2F4B9842F1D932
:102FC800032036E02A4A12689201E2D4012030E058
:102FD800032B05D0264AD26D9207DAD4012028E0C7
:102FE800234A126E9207D4D4012022E01F4B1A689C
:102FF80007231340AB421DD823685B0706D51C4A3C
:1030080093681E490B40E1680B439360FFF71CFF70
:10301800174B9A68120A0F2313409B00184A9A58B4
:103028001F231340D840174B1860174B1868FFF739
:10303800DDFA70BD0D4A136807218B432B431360DB
:10304800FFF720FB0600094B1A6807231340AB4221
:10305800D2D0FFF717FB801B074B9842F3D9032008
:10306800E7E70120E5E70120E3E7C046002002404A
:1030780000100240FFF0FFFF88130000FF8FFFFFE2
:10308800B48000080000002008000020014B1868E8
:103098007047C0460000002010B5FFF7F7FF064B49
:1030A8009A68120B072313409B00044A9A581F235F
:1030B8001340D84010BDC04600100240F4800008FC
:1030C800F0B583B0040003689B0362D5584BDB6BF3
:1030D800DB001ED4564AD16B802040050143D163E2
:1030E800D36B03400193019B0126524A1168802348
:1030F8005B000B431360FFF7C5FA05004D4B1B68D7
:10310800DB0508D4FFF7BEFA401B0228F6D90325D1
:1031180002E00026E9E70025002D23D1444BD96DB4
:10312800C02292000B001340114210D0A2699A42AB
:103138000DD03F4AD36D40490B40D06D80214902E4
:103148000143D165D16D3D480140D165D365DB07A9
:1031580010D4002D06D1364AD36D37490B40A169EA
:103168000B43D365012E15D1314AD36B34490B403B
:10317800D3630FE0FFF786FA07002D4BDB6D9B0743
:10318800E7D4FFF77FFAC01B2E4B9842F5D90325E9
:10319800DFE700252368DB0706D5254A536D0321A1
:1031A8008B4361680B43536523689B0706D5204A08
:1031B800536D0C218B43A1680B43536523689B0611
:1031C80006D51B4A536D20490B40E1680B435365F4
:1031D80023685B040BD5164A536D9B009B086169F5
:1031E8000B4353658023DB0562699A4211D023683B
:1031F8001B050BD50E4A536D14490B4021690B432F
:10320800536522698023DB019A4209D0280003B064
:10321800F0BD074AD16880235B020B43D360E6E721
:10322800034AD16880235B020B43D360EEE7C046B4
:103238000010024000700040FFFCFFFFFFFFFEFF90
:10324800FFFFFFEF88130000FFCFFFFFFF3FFFFFE7
:1032580010B5040083680269134342691343C269C5
:103268001343426E1A4301680B686D4803401343C9
:103278000B60226853686B490B40E1680B4353604D
:10328800226AA3691A4321688B686748034013437D
:103298008B602268D36A0F218B43616A0B43D36228
:1032A8002368624A93420AD0614A93423FD0614AF6
:1032B80093425DD0604A93424AD010230BE05F4BA3
:1032C8005A6D03231340022B44D02CD8002B43D033
:1032D800012B43D10333E06980221202904249D086
:1032E800042B00D195E000D97DE0002B00D189E0C6
:1032F800022B76D15248636A5B00524A995AFCF70E
:10330800FBFE63685B08C0186168FCF7F5FE000403
:10331800000C0200103A4C4B9A4200D97EE0236818
:10332800D860002065E0032B1AD10533D3E7434B5F
:103338005A6D0C231340082B14D005D8002B13D03A
:10334800042BC8D01023C6E70C2B0FD1043BC2E7CF
:103358000023C0E70223BEE70023BCE71023BAE737
:103368001023B8E70223B6E70023B4E71023B2E737
:103378000023B0E7042B31D026D8002B28D0022B0D
:1033880020D12F48636A5B002E4A995AFCF7B4FE95
:10339800400063685B08C0186168FCF7ADFE83B243
:1033A8000004000C01001039274A914234D80F223A
:1033B80093431A0040080723184010432368D86035
:1033C800002016E0012014E0082BDBD0012010E0DB
:1033D800FFF762FE0028D5D100200AE0FFF734FD90
:1033E800F8E7012005E0082B02D18020000282E7DF
:1033F800012001236A22A352023AA3520023236721
:10340800636710BDFFF748FE002800D073E700206F
:10341800EFE7FFF719FDF7E70120EAE70120E8E702
:10342800F369FFCFFFCFFFFFFFF4FF110038014022
:103438000044004000480040004C0040001002409A
:103448000024F40014810008EFFF0000836ADB0702
:1034580006D5026853682C490B40C16A0B43536078
:10346800836A9B0706D50268536828490B40016B9D
:103478000B435360836A5B0706D502685368244987
:103488000B40416B0B435360836A1B0706D50268E8
:10349800536820490B40816B0B435360836ADB06FA
:1034A80006D5026893681C490B40C16B0B439360B7
:1034B800836A9B0606D50268936818490B40016C1D
:1034C8000B439360836A5B060BD502685368144903
:1034D8000B40416C0B43536080235B03426C9A4260
:1034E8000AD0836A1B0606D5026853680D490B404B
:1034F800C16C0B4353607047026853680A490B401C
:10350800816C0B435360ECE7FFFFFDFFFFFFFEFFFD
:10351800FFFFFBFFFF7FFFFFFFEFFFFFFFDFFFFF67
:10352800FFFFEFFFFFFFF7FFFFFF9FFFF8B5CE4656
:10353800474680B506000D0017009946089B984637
:103548003368DC692C40641B63425C41BC4241D156
:1035580043460133F4D0FFF795F84B46C01A40456F
:1035680023D84346002B20D033681A685207E7D582
:10357800DA691205E4D5802212011A6232681368EA
:1035880017490B40136032689368A331FF318B43AE
:10359800936020238422B3500432B3500432B350D2
:1035A80060330022F254032015E0326813680C4996
:1035B8000B40136032689368A331FF318B439360EB
:1035C80020238422B3500432B35060330022F254D3
:1035D800032000E000200CBC90469946F8BDC04688
:1035E8005FFEFFFFF0B5C64600B582B004000D00CF
:1035F80090461E008423C358202B6AD1002900D18D
:103608006CE0002A00D16BE080235B0182689A425B
:103618001FD08023E35C012B64D080230122E25475
:103628000C330022E250083B2132E250FFF72AF81F
:10363800070054234246E2520233E25280235B01E0
:10364800A2689A420CD00023984680230022E254B4
:103658001DE00369002BDCD1CB07DAD5012039E066
:103668002369002B02D000239846EEE7A8460025E0
:10367800EBE743461B882268DB05DB0D93620223D8
:103688009C46E0445623E25A013A92B2E25256234B
:10369800E35A9BB2002B0FD000963B0000228021FA
:1036A8002000FFF743FF00281ED1002DE1D02A7823
:1036B80023689A620135E5E700963B000022402125
:1036C8002000FFF733FF002810D184232022E25086
:1036D80000E0022002B004BC9046F0BD0120F9E7EA
:1036E8000120F7E70220F5E70320F3E70320F1E7DD
:1036F80030B583B004008C230022C250FEF7C2FF0D
:10370800050023681B681B070FD423681B685B0729
:1037180018D420238422A3500432A3500023E36644
:10372800083AA354002003B030BD80210C4B00930D
:103738000300002289032000FFF7F8FE0028E4D0E8
:103748000320F0E78021064B00932B000022C903D9
:103758002000FFF7EBFE0028DBD00320E3E7C0469C
:10376800FFFFFF0110B5041E30D08423C358002B7F
:1037780022D084232422E2502268136801218B433B
:1037880013602000FFF764FD012814D0A36A002B02
:1037980018D1226853680E490B4053602268936819
:1037A8002A218B4393602268136829390B431360DD
:1037B8002000FFF79DFF10BD80330022C254FEF7A2
:1037C800E3FED6E72000FFF741FEE2E70120F2E73B
:1037D800FFB7FFFF70B584B0040002AA154B03CBF6
:1037E80003C26A46144B03CB03C2636E002B06D197
:1037F80001336A22A352023AA35204B070BD226870
:1038080095686D0E07231D409268520F134002AE53
:10381800F05CC0006A46D15CFCF7F8FC6A23E05211
:10382800705DC0006B46595DFCF7F0FC6823E05200
:10383800E3E7C046208000082C81000870B580238B
:10384800C35C012B15D0802401260655842524232A
:103858004351026813681168B1431160064A134066
:103868000022426601680B60202343510255002064
:1038780070BD0220FCE7C046FFFFFFDFF8B504007B
:103888000B008022825C012A1BD080250120605514
:1038980084262422A2512268176811688143116086
:1038A80022689168C900C908194391602000FFF790
:1038B80091FF23681F602023A35100236355002034
:1038C800F8BD0220FCE70000F8B504000B008022D8
:1038D800825C012A1BD08025012060558426242281
:1038E800A2512268176811688143116022689168A3
:1038F80008480140194391602000FFF76BFF2368D7
:103908001F602023A351002363550020F8BD022027
:10391800FCE7C046FFFFFFF10D488546FEF7F4FDC2
:103928000C480D490D4A002302E0D458C450043312
:10393800C4188C42F9D30A4A0A4C002301E01360E8
:103948000432A242FBD300F017F8FEF755FDFEE75C
:103958000090002000000020B809002044850008DD
:10396800B8090020CC0A0020FEE70000014B1868C7
:103978007047C0460C00002070B50C4D0C4E761BED
:10398800B61005D0002408CD01349847A642FAD1D4
:1039980004F026FB074D084E761BB61005D0002410
:1039A80008CD01349847A642FAD170BD3885000881
:1039B800388500083885000840850008F0B50500FE
:1039C80083074AD0541E002A44D003000322CEB2F3
:1039D80002E00135013C3DD301332E701342F8D18A
:1039E800032C2FD9FF220A40150215432A04154338
:1039F8000F2C35D92700103F3F093E01B4461E0061
:103A08001A0010366644156055609560D56010320E
:103A1800B242F8D10F260C2201373F012640DB19AC
:103A28003700224217D03E1FB608B400A4461A0039
:103A38001C1D644420C2A242FCD103240136B600F6
:103A48009B193C40002C05D0C9B21C1919700133D0
:103A58009C42FBD1F0BD3400F4E714000300BFE73B
:103A68002700E0E70EB400B50B499CB0079104911C
:103A78000A491DAB05910A4904CB029006900868D3
:103A880002A9019300F03CF80023029A13701CB0BD
:103A980008BC03B01847C046FFFFFF7F0802FFFFBE
:103AA8000C00002010B583070AD00300032102E0B0
:103AB80001330B4205D01A78002AF9D1181A10BD23
:103AC800030019680C4A0D4C8A188A4322420FD108
:103AD8005968094A04338A188A43224208D1596826
:103AE800054A04338A188A432242F1D000E00133A0
:103AF8001A78002AFBD1E1E7FFFEFEFE8080808075
:103B0800F0B5DE464E4657464546E0B5D7B00C0000
:103B180091460B910F93834602F0C2FF0368180089
:103B28001C93FFF7BFFF1B90A3891B0605D52369CC
:103B38000693002B01D101F022F82DAB2A93002324
:103B480000242C932B93159300234E461693179419
:103B580000231D931E931A931F9320930993337880
:103B68002DAF002B00D111E1340003E0637801345C
:103B7800002B3FD0252BF9D1A51BB4423ED1237889
:103B8800002B00D102E1631C9A4600231CAAD376BD
:103B98000122524207920022637815005446089287
:103BA80001341A00203A5A2A59D8C84992008A582A
:103BB8009746584602F074FF436818002093FFF7B1
:103BC80071FF80461F90584602F06AFF83681A9377
:103BD8004346002B08D01A9B002B05D01A9B1B7854
:103BE800002B01D001F0FFF92378D9E720231D43EA
:103BF8002378D5E7A51BB44200D1C7E02C9B3E60D3
:103C08005B192C932B9B7D60069301332B93072B19
:103C180006DC0837099B9C46AC4463460993AEE72B
:103C280058460B992AAA03F0A1FE002809D12DAF06
:103C3800F0E7A3460E9B002B03D01900584602F06C
:103C48004DFE0B9B9B895B0601D501F056FC09983C
:103C580057B03CBC90469946A246AB46F0BDA2463A
:103C6800A8461293002B00D190E03DAE337000239C
:103C78001CAAD37600220E92013201330A92002246
:103C88000693002307921892139214920222414637
:103C98001140109141460A4202D0069A0232069219
:103CA800842241461140119141460A4205D1089AA1
:103CB8000699541A002C00DDCEE02C9C002B11D064
:103CC8001CAA1B23944663443B6001237B602B9B07
:103CD8000134199301332C942B93072B01DD00F049
:103CE8002AFC0837109B002B0ED023AB3B60022325
:103CF8007B602B9B0234109301332C942B93072B5E
:103D080001DD00F025FC0837119B802B00D124E34E
:103D1800079B0A9A9D1A002D00DD62E34346DB05E6
:103D280000D5BAE20A9B3E609C467B602B9B6444AC
:103D3800079301332C942B93072B00DD12E10837EE
:103D480043465B0706D5089B069A9E1A002E01DD9E
:103D580000F00EFC089B069A934200DA1300099AB9
:103D680094469C4463460993002C00D071E30023D9
:103D78002B930E9B002B03D058460E9902F0AEFDF4
:103D880056462DAF3378002B00D0EDE62C9B0693DA
:103D9800002B00D155E758460B992AAA03F0E6FDF7
:103DA8004FE7303B210000201A0083001B185B00FE
:103DB800D0180B001B7801311A00303A0C00092A80
:103DC800F3D90890EDE612930723A2460F9CA84664
:103DD80007349C43220018CA16931794169B179C05
:103DE8000F921D0001226400640828002100384B4E
:103DF8005242FEF78FF9002801D000F047FD01225A
:103E080028002100324B5242FCF70CFB002801D05D
:103E180000F03CFD1698179900220023FCF7F8FAE9
:103E2800002801D001F0C7F81CABDB7E129A472AA4
:103E380001DC01F0ACF8274E8022414691437D3ADF
:103E48000692002288460E9203320A9200220792B6
:103E58001892139214924AE12C9A2B9B1E4D102C07
:103E680026DD1021300089465E46390083460B9FC7
:103E780003E0103C0831102C16DD4846103201339F
:103E88000D6048602C922B93072BF2DD390030002F
:103E98002AAA03F06BFD002800D066E3103C2C9A98
:103EA8002B9B2DA9102CE8DC0F005946B3460E00B9
:103EB8007C60013314193D602C942B93072B01DD92
:103EC80000F06AFF1CABDB7E0837F7E6808100084C
:103ED800FFFFEF7F40810008EC820008159B3E60E1
:103EE800012B01DC00F00CFC01237B602B9B0134CF
:103EF8005D1C2C9407932B95072D01DD00F085FCA4
:103F080008371C9B01353B601B9B2B959C466444E2
:103F18007B602C94072D01DD00F085FC083700221A
:103F2800169817990023FCF76DFA002801D000F0C5
:103F380005FC159B0136013BE41801353E607B60AA
:103F48002C942B95072D00DDEAE3083726AB3B6060
:103F58001E9B01359C4664447B602C942B95072D51
:103F680000DCECE658460B992AAA03F0FFFC00286F
:103F780000D05FE62C9C2DAFE2E612930023A24608
:103F88000F9C1CAA40CCA846D376002E01D100F085
:103F980006FE079A531C01D100F094FF002130005F
:103FA80003F046F80E90002801D101F020F90E9B8D
:103FB800991BCA43D2170A91114000221CABDB7E21
:103FC80006910F940E9207921892139214928EE013
:103FD800A2460F9C129308CC3DAE337000231CAA56
:103FE800A846D3760F9445E60F9A08CA0893002B83
:103FF80001DB00F030FC089B0F925B42089304231E
:104008001D432378CCE52B231CAAD3762378C7E558
:1040180080231D432378C3E52378601C2A2B01D114
:1040280001F048FB1A000024303A0794010004000C
:10403800092A00D9B5E5002083001B185B009818F1
:104048000B001B7801311A00303A0C00092AF3D909
:104058000790A6E501231D432378A1E51CABDB7E71
:10406800002B00D0C0E520231CAAD376237897E53F
:10407800A246129310242B0023431C00A30600D44D
:104088009FE307220F9B0733934319000CC90C9237
:104098000D9301230F9100221CA9CA760798421C90
:1040A80000D1CBE080222100914388460C990D9ADB
:1040B8000D00154300D0C0E0002801D000F0F3FE49
:1040C800002B61D101331A0022400A9256AE2342D6
:1040D80000D0C4E30A9A07991CABDB7E06928A4299
:1040E80000DA069100220E92189213921492002B75
:1040F80000D1CBE5069A01320692C7E52A00129351
:1041080010231A43A246904643469B0600D44DE32B
:1041180007230F9C07349C43220018CA0C930D9464
:104128000F924346D04C23401C000023B3E70823DA
:104138001D43237834E52A00129310231A43A2461C
:10414800904643469B0600D446E307230F9C07345A
:104158009C4301339C46A444634622680F936368DA
:104168000C920D93002B00DA42E3079B444601337F
:104178000FD080239C430C9A0D9B1100194308D142
:10418800079B002B0DD1A046002356AE07930A9338
:10419800A0E70C9A0D9B002B00D08BE1092A00D9CF
:1041A80088E163220C9B3DA930338B5401230A9389
:1041B8001CABE7269C46A04666448BE723786C2B0D
:1041C80001D100F0BCFC10221543E9E42378682BE8
:1041D80001D100F0CDFC40221543E1E40F9BA2463B
:1041E80004CB02240C9200220D922A009F492243FC
:1041F800140023AA118078220F939D4B12921D93CD
:10420800022348E72B00A2469B0600D530E32B008B
:10421800DB0601D500F04EFE2B005B0601D500F051
:10422800F7FE2B009B0501D400F044FE0F9C099A71
:1042380008CC56461A700F94A4E54446012BA8D022
:1042480056AE022B00D119E10723A046B9469C4679
:104258000C9A0D9B5F07D5086146D8082F430300C9
:104268003800114034003031013E3A0031701843B3
:10427800F0D1250044464F460C920D93E20700D436
:1042880054E1302900D151E13023013E023D337021
:1042980056AB5B1B2E000A931CE7129B652B00DCB8
:1042A8001CE61698179900220023FCF7ABF80028A3
:1042B80000D19BE16F4B01343B6001237B602B9B5A
:1042C8002C94079301332B93072B01DD00F0B3FDEA
:1042D8000837249B159A934200DBB2E21C9B3B6093
:1042E8001B9B9C467B602B9B6444079301332C9457
:1042F8002B93072B01DD00F02EFC0837159B5D1E64
:10430800002D00DC1CE55C4A2B9B9146102D01DC3E
:1043180000F0A2FD0B9821003A004C4610265F469B
:10432800814605E00832103D102D01DC00F090FDBB
:1043380010310133146056602C912B93072BF1DD5B
:10434800494638002AAA03F011FB002801D000F0E2
:10435800FAFE2C992B9B2DAAE5E7089B069A9D1A35
:10436800002D00DCD4E4444A2B9B9146102D26DD19
:1043780021003A004C460B9FB1465E4603E0103DD3
:104388000832102D16DD10201031013314605060F2
:104398002C912B93072BF2DD390030002AAA03F069
:1043A800E5FA002800D0E0E0103D2C992B9B2DAABF
:1043B800102DE8DCB34617004E46A1460C004A46CD
:1043C800641901333A607D602C942B93072B01DD2F
:1043D80000F05CFD079B0A9A08379D1A002D00DC47
:1043E8009CE4254A2B9B9146102D26DD21003A009E
:1043F8004C460B9FB1465E4603E0103D0832102D37
:1044080016DD102010310133146050602C912B936D
:10441800072BF2DD390030002AAA03F0A7FA00289A
:1044280000D0A2E0103D2C992B9B2DAA102DE8DC82
:10443800B34617004E46A1460C004A46641901339C
:104448003A607D602C942B93072B00DDA1E108379F
:1044580064E458460B992AAA03F088FA002800D188
:1044680085E4FFF7E7FBC046FFFBFFFF307800005D
:104478004C8100087C810008FC8200080F200C9AFF
:104488000D9BA446B8461D9F01001140795C1C078E
:104498001509013E2C43317019090B002100220037
:1044A8001943F1D10C920D9356AB9B1B47460A93C7
:1044B800E0460FE6802552460023ED002540A14640
:1044C800BA46A8460C9C0D9D1F0056AE06920BE0FE
:1044D8000A22002320002900FBF7C2FF002D01D18A
:1044E80000F06EFD04000D000A22002320002900C0
:1044F800FBF7B6FF4346013E303232700137002BDE
:10450800E6D01A9B1B789F42E2D1FF2FE0D0002D06
:1045180001D000F013FC092C01D900F00FFC069B18
:104528000C940D9515974C4657469A4656AB9B1BCF
:10453800A0460A93CEE558460B992AAA03F016FA24
:10454800002801D0FFF776FB2C9C2DAFFFF7CAFBA4
:1045580058460B992AAA03F009FA002801D0FFF758
:1045680069FB2C9C2DAFFFF7CFFBB346FFF762FB2F
:104578002B9BC44D102E24DD10220B9990468946A2
:1045880022005C4603E0103E0837102E17DD414636
:10459800103201333D6079602C922B93072BF2DDAA
:1045A800494620002AAA03F0E1F9002801D0FFF7C4
:1045B80040FB103E2C9A2B9B2DAF102EE7DCA34618
:1045C8001400A419013360C72C942B93072B01DC2A
:1045D800FFF7C0FB58460B992AAA03F0C7F9002831
:1045E80001D0FFF727FB2C9CFFF7B4FB2499002987
:1045F80000DCEBE3149B1D00159B9D4200DD66E289
:10460800002D0CDD2B9B6419079301333E607D6000
:104618002C942B93072B01DD00F07AFD0837EB4330
:10462800DB171D40149B5D1B002D00DDCAE2149BA7
:104638009C464346B44465465B0500D5E9E2249BA5
:10464800159A934204DB4246D20701D400F0D4FC09
:104658001C9A3A601B9A94467A602B9A6444079293
:1046680001322C942B92072A01DD00F05EFD0837F9
:10467800159A9446D31A6644701B1E00834200DDC7
:104688000600002E0CDD2B9AA419079201323D601A
:104698007E602C942B92072A01DD00F0C9FD0837B3
:1046A800F543ED1735405D1B002D01DCFFF748FB96
:1046B800754A2B9B9146102D00DCCDE30B98210009
:1046C8003A004C4610265F46814604E00832103D09
:1046D800102D00DCBCE310310133146056602C91BE
:1046E8002B93072BF2DD494638002AAA03F03EF93E
:1046F800002801D000F027FD2C992B9B2DAAE6E776
:1047080001234246134201D0FFF7EEFB7B602B9B4F
:1047180001345D1C2C9407932B95072D00DC14E4C1
:1047280058460B992AAA03F021F9002801D0FFF76F
:1047380081FA2C9C2B9D2DAFFFF708FC159B5E1E64
:10474800002E01DCFFF702FC4F4B9946102E00DCCF
:10475800E3E30B9A23004C46914604E00837103EE9
:10476800102E00DCD7E31022103301353C607A604C
:104778002C932B95072DF1DD494658462AAA03F0BC
:10478800F5F8002801D0FFF755FA2C9B2B9D2DAF8B
:10479800E5E758460B992AAA03F0E8F8002801D063
:1047A800FFF748FA2C9C2DAFFFF7B8FA4346DB0613
:1047B80000D478E10F9C08CC0C9300230F940D9340
:1047C800AFE4E30600D47BE10F9B04CB0C920022FC
:1047D8000F930D9201235EE44346DB0600D455E1B6
:1047E8000F9C08CC0C93DB170D930F9400D4BCE4FA
:1047F8000C990D9A00244B4294410C930D942D234F
:104808001CAAD37644462C3B48E458460B992AAA5E
:1048180003F0ACF8002801D0FFF70CFA2C9C2B9D74
:104828002DAFFFF76EFB58460B992AAA03F09EF8A6
:10483800002801D0FFF7FEF92C9C2B9D2DAFFFF728
:104848006EFB4346DB0701D4FFF77AFA46E5A2463A
:10485800A846129375E423780F92FFF7A1F9302147
:1048680062333DAAD1541CABE7269C46664431E42A
:104878000F9C099A08CC56461A60D2175A600F94B2
:10488800FFF780FAEC820008FC8200081698179956
:1048980002000B00FDF73EFC002801D000F055FE99
:1048A800129B612B01D100F0FCFD412B01D100F0DE
:1048B800E1FC079B013300D1CDE32023129A9A43F0
:1048C8000A92472A01D100F01DFE802342465B0070
:1048D8001A4318921699179A002A01DA00F0DEFD99
:1048E80000230D00914619930E932023129A9A43A0
:1048F800462A01D100F04EFC0A9B452B01D000F05E
:1049080029FC079B2A005C1C28AB049325AB039366
:1049180024AB029302230194009358464B4600F0BF
:10492800ABFF0600041943460693189B98460023DC
:10493800002228004946FBF765FD2300002809D11D
:10494800289BA34206D230215A1C28921970289B12
:104958009C42F9D89B1B15930A9B472B00D194E3E3
:104968000A9B462B01D100F049FC249B1493149B0D
:10497800013B984624930A9B412B01D100F0F2FD9C
:1049880048226B469B1800221B7828201CA909186E
:104998000B7041462B23002904DA149B2738C31ACD
:1049A80098462D2329201CA909180B704346092B6A
:1049B80001DC00F02EFE1CAA3723944663444546CA
:1049C8001C00B946B04628000A21FBF705FD260061
:1049D8003031013C280021700A21FBF717FC2F0019
:1049E8000500632FEFDC4F46B14601001CA84B467B
:1049F800372284463031023BC9B2624446461970B8
:104A0800934201D300F06AFE2A22624400E019783A
:104A18001CA81170844637210133614401328B424E
:104A2800F5D139234A4663449B1A2A2262449446A4
:104A380026AA63449B1A1E931E9A159B11009C4636
:104A480061440A91012B01DC00F0F9FD1B9A0A9BD5
:104A5800944663440A93D84B069A1A40130080225E
:104A680052001A4390460A9AD343DB171A40002390
:104A78000692189313931493199B002B00D032E3DA
:104A880000221CABDB7E0792FFF731FB43465B0637
:104A980000D45BE20F9C08CC1BB20C93DB170D9380
:104AA8000F94FFF75FFB43465B0600D462E20F9C5E
:104AB80008CC9BB20C9300230F940D93FFF731FBA6
:104AC800630600D44FE20F9B04CB92B27EE61D1E14
:104AD80000DD97E5A3E5A24612932C00FFF7CEFA76
:104AE800A246A8461293B54B1D9343469B0600D495
:104AF8003CE107230F9C07349C43220018CA0C93FF
:104B08000D940F924346DB070DD50C9A0D9B1100AF
:104B1800194308D0302223AB1A70129A5A704246B1
:104B280002231A4390464346A34C23401C00022309
:104B3800FFF7B1FAA246A8461293FFF7E5FA4C3BF5
:104B48001D4301342378FFF72BF812939C4BA246A0
:104B5800A8461D93C9E758460B992AAA02F006FFF2
:104B6800002801D0FFF766F82C9C2DAFFFF7C6FB95
:104B78009933FF331D4301342378FFF711F840219F
:104B8800584601F095FF0B9B18601861002801D169
:104B980000F09DFD40230B9A5361FEF7CEFF079B63
:104BA8000693062B00D924E2002300220E93069BCD
:104BB800844E0A930F94002307921892139214922A
:104BC800FFF764F8804A2B9B9146102D00DCE6E144
:104BD80021003A004C460B9FB1465E4604E008327D
:104BE800103D102D00DCD5E1102010310133146088
:104BF80050602C912B93072BF1DD390030002AAA45
:104C080002F0B4FE002800D0AFE42C992B9B2DAA0B
:104C1800E6E7159B0B999C46B44463460A936A4B96
:104C28002200994653461093434688461193139998
:104C3800189B2C009A4612963B001A9F002935D0E3
:104C48005146002936D11399013F01391391209912
:104C580019601F998C4659602B996244079101315C
:104C68002C922B91072900DD8AE008330A99081B4A
:104C780039780D00814200DD0500002D0CDD2B99EF
:104C88005219079101311C605D602C922B91072904
:104C980000DDEEE039780833E843C01705404D1BC6
:104CA800002D0CDC641813990029C9D1514600293C
:104CB80000D1D7E1012149428C46E244C7E72B994C
:104CC800102D01DC00F0C2FC484607905846A34668
:104CD80044461026B8462700040003E0103D083378
:104CE800102D17DD48461032013118605E602C9295
:104CF8002B910729F2DD390020002AAA02F036FE9E
:104D0800002801D0FEF795FF103D2C9A2B992DAB6A
:104D1800102DE7DC260038005C464746B34680463F
:104D280007985219013118605D602C922B91072960
:104D380000DDDFE1397808336418B4E71F9B209958
:104D4800F61A1A00300002F0DBFD1A9920004B78A1
:104D58008C465A1E93419C4463460A221A932900A2
:104D68000023FBF77DFB0027FFF7BCFB4346DB0670
:104D780055D50F9C08CC0C9300230F940D93C1E6D6
:104D8800414658462AAA02F0F1FD002801D0FEF754
:104D980051FF2C9A2DAB69E758460B992AAA02F0C5
:104DA800E5FD002801D0FEF745FF1CABDB7E2C9CFF
:104DB8002DAFFEF783FFC046FFFBFFFF4C810008C5
:104DC8006081000874810008FC820008DF4B013410
:104DD8003B6001237B602B9B2C94079301332B931F
:104DE800072B00DDF2E00837002971D14246012384
:104DF8001340159A134301D1FEF7A2FF1C9B3B6099
:104E08001B9B9C467B602B9B6444079301332C942B
:104E18002B93072B00DD03E13A0008326BE0434691
:104E28005B0600D486E00F9C08CC9BB20C93002351
:104E38000F940D9366E658460B992AAA02F096FD40
:104E4800002801D0FEF7F6FE2C9C2DAFFFF741FAA3
:104E5800BB46A14617000C004A46641901333A6064
:104E68007D602C942B93072B01DCFEF768FFFFF77E
:104E780079F8414658462AAA02F078FD002801D060
:104E8800FEF7D8FE39782C9A2DAB05E758460B99D2
:104E98002AAA02F06BFD002801D0FEF7CBFE2C9C5D
:104EA8002DAFFEF735FF4446012B01D0FFF7C8F9B7
:104EB800FFF777F90F9C099A08CC56461A600F94A9
:104EC800FEF760FF3000FEF7EDFD0100FFF771F817
:104ED8001C9B3B601B9B9C467B602B9B64440793FD
:104EE80001332C942B93072B00DD99E03A0008320C
:104EF800002900DA82E2159901338C466444166071
:104F080051602C942B93072B01DDFFF72BF8083207
:104F18001700FEF715FFA1461C004B46A4190135E2
:104F28003B607E602C942B95072D01DCFFF70DF874
:104F3800FFF7F6FB43460F9C9B0500D41AE708CC05
:104F4800DBB20C9300230F940D93DBE543460F9CD3
:104F58009B0500D445E408CC5BB20C93DB170D939A
:104F68000F94FFF7FFF8A30500D42DE40F9B04CBA3
:104F7800D2B22BE443460F9C9B0500D41BE408CC1B
:104F8800DBB20C9300230F940D93FFF7CAF8704E11
:104F9800FEF752FFB34617004E46A1460C004A469C
:104FA800641901333A607D602C942B93072B45DC00
:104FB8000837FFF73CFB2D231CAAD376FEF736FFF4
:104FC800092C01D9FFF78EFAFFF7A9FA58460B9971
:104FD8002AAA02F0CBFC002801D0FEF72BFE249968
:104FE8002C9C2DAF00E78023DB001D432378FEF7C0
:104FF800D7FD06230693D7E5159A94466644D31A37
:10500800761B9E4201DCFFF74BFB1E00FFF748FBB7
:105018000F9C099A08CC56461A800F94FEF7B2FEE8
:1050280058460B992AAA02F0A1FC002801D0FEF7E5
:1050380001FE24992C9C2B9B2DAA59E758460B99C5
:105048002AAA02F093FC002801D0FEF7F3FD2C9C5D
:105058002DAFFFF7ECFA2023129A9A431A3B0A92D3
:10506800079332E41099129E1A971F00159B8A46DF
:10507800250021001400119AF3189046994201D88E
:10508800FFF7DDFA1D00FFF7DAFA249B1493DA1C08
:1050980002DB079A934207DD129B023B1A00129328
:1050A80020239A430A9262E4149B15998B4200DAF2
:1050B800CEE0069A0A93D20703D51B9A9446634416
:1050C8000A93069B5B0503D5149B002B00DD4FE27A
:1050D8000A9AD343DB171A406723069212930023D8
:1050E80018931393C8E42D231CAAD37600220792A1
:1050F800FFF700F8414658462AAA02F037FC002874
:1051080001D0FEF797FD39782C9A2DAB6418CAE5C3
:1051180058460B992AAA02F029FC002801D0FEF76C
:1051280089FD2C9C2DAFFFF77AFA58460B992AAACD
:1051380002F01CFC002801D0FEF77CFD249B2C9C6F
:105148002DAFFFF795FABB46FEF774FD7C8100088A
:105158003C81000828AB049325AB039324AB02934E
:10516800079B2A0001930223584600934B4600F000
:1051780083FB0A9B0600472B1CD14346DB0700D55F
:1051880061E142460692189A289B904647220A9265
:10519800FFF7E0FB28AB049325AB039324AB029302
:1051A800079B2A0001930323584600934B4600F0BF
:1051B80063FB0600079BF4180A9B462B01D0FFF7F8
:1051C800B2FB3378302B03D0249BE418FFF7ABFBFA
:1051D8000022002328004946FBF714F90028F3D1E0
:1051E8000123079A9B1A2493E418FFF79CFB079A5C
:1051F8001CABDB7E06920F94FEF727FE249A012350
:105208001492002A00DC31E206990B4007990B43FF
:1052180000D0DDE1149B0A9366231293069B5B057D
:1052280000D5A7E10A9AD343DB171A40069256E73E
:1052380058460B992AAA02F099FB002801D0FEF7DC
:10524800F9FC159B249A2C9C9B1A2DAFFFF728FA82
:105258001B9A159B944667221292149A63440A93E8
:10526800002ADBDC981A421CD343DB170A921A4047
:10527800069234E7302223AB1A70283202245A707F
:1052880043461C43079B632B00DDFEE000233DAE35
:105298000E9381231698179942465B001A43189279
:1052A800002900DA99E02022129D002395430A95EF
:1052B800A046050089461993129B612B00D191E104
:1052C800412B01D0FFF711FB280024AA494602F020
:1052D800D3FAFF2300229B05FCF71EF900220023C6
:1052E80004000D00FBF78EF8002801D00123249359
:1052F800D84B0693079BB1469C46B4446346139328
:10530800013B1493534615934346BA46219306E04E
:1053180000220023FBF776F8002800D0E1E0002205
:10532800CD4B20002900FCF7F7F80D000400FCF72E
:105338000FFF0700FCF742FFB04602000B002000F9
:105348002900FCF755FB4246069B0136DB5D04004D
:105358001370149B0D009B1A1093139B119698457C
:10536800D6D1159B139757469A46219B1492984677
:105378004B46B1461E0001235B42109300222000D9
:105388002900B64BFBF758F8002866D10022200008
:105398002900B24BFBF736F8002802D0139BDB0735
:1053A8005BD4109B302219004944002B0CDB4B4680
:1053B80018001A7001338142FAD1119A109B944651
:1053C80001339C4463461193119B9B1B15934346E1
:1053D8000693189B9846FFF7BFFA2023A046129A17
:1053E8009A430A928022169B179C12061D00944627
:1053F8002300634499462D2319935DE74D421031EC
:1054080000DB73E196491027894621004C46B146D6
:105418005E4603E00832103D102D47DD10310133A0
:10542800146057602C912B93072BF3DD30000B99F8
:105438002AAA02F09BFA002801D0FFF796F82C99C7
:105448002B9B2DAAE7E7079BF41843460693189B66
:10545800984647230A93FFF76AFA149B06992893FC
:105468004B46013B1A78C97B8A4207D13020187015
:10547800289B013B28931A789142F8D0392A00D109
:1054880014E10132D2B21A709EE75846591C01F055
:105498000FFB061E00D12CE10E90FAE600230E93B6
:1054A800A0E7302223AB1A704832E7E6B3464E46EF
:1054B800A1460C00494664190133116055602C94CB
:1054C8002B93072B00DCA8E458460B992AAA02F074
:1054D8004DFA002801D0FEF7ADFB2C9C2B9B2DAA82
:1054E80009E5159B139757469A4643461493219B03
:1054F80098464B46B1461E0040E701235B4209939C
:10550800FEF7A5FB079B002B01D1013307938023EE
:1055180042465B00179C1A431892002CBEDB28AB4E
:10552800049325AB039324AB0293079B584601933E
:1055380002230093169A179B00F09EF90023060099
:10554800A146169D19930E9317E6179B002B00DAB8
:10555800A8E01CABDB7E129A472A00DC9FE0414E94
:10556800FEF76AFC129B01220F33DBB2FFF70DFA3C
:10557800672312931A990B78FF2B00D1B2E000220F
:1055880018921392149A05E0139801310130139080
:10559800FF2B0AD0934208DAD21A4B78002BF3D1AA
:1055A800189B013318930B78F2E71A911492189A02
:1055B800139B94461F9A634453430A9A94469C4407
:1055C8006246D343DB170A921A400692FFF754FA51
:1055D8001B9B9C4662448C46944463460A9366230C
:1055E80012931BE6280024AA494602F045F9FF2336
:1055F80000229B05FBF790FF0022002304000D000A
:10560800FAF700FF002801D001232493164B0693D4
:1056180070E61CA92A238C466344002A06D10A0096
:105628002A21302352181370053B6344404630301A
:10563800187026AA01339B1A1E93FFF7FDF9069BE3
:10564800DB0701D4FFF707FAFFF700FA04480790D1
:10565800FFF766FB60810008000030400000E03F73
:10566800FC820008488100084C810008069A134013
:10567800079A134306D10123069365331293653BBA
:105688000A932CE594461B9B581C84446246D343DA
:10569800DB170A921A406623069212931FE5184EEA
:1056A800FEF7CAFB2D231CAAD37654E7069A927AF2
:1056B8001A7089E60F9A08CA0793002B02DA0123A9
:1056C8005B42079363780F920400FEF769FA0C2394
:1056D8005A4613600D3B0993FEF7B9FA02231E934D
:1056E800FFF7AAF900231893139360E70549894641
:1056F800E0E640230B998A8913438B81FEF7A1FAD0
:1057080044810008FC820008034B10B5002B02D02E
:10571800024800F005F810BD0000000021680008EC
:1057280010B5010000230022002002F0A9F910BDE5
:10573800F0B54546DE4657464E46E0B503690D6965
:1057480085B080460A000191AB4200DA91E014214D
:1057580041448C46013D1432AB00D6186344039390
:105768001B6800919A46336850465F1C39000292C4
:10577800FAF7C2FC0400BA453CD300230021180004
:105788008C46A946009F029A08CA1904090C61436D
:105798001B0C634309180D0C5D193B6809041B04B5
:1057A8001B0C6344090C591A3B68280C2D042D0C5A
:1057B8001B0C5B1B0D145B1909041D14090C1B043D
:1057C8000B43AC4608C79642DED2039B4D461A6887
:1057D8000392002A0ED1009A043B934208D9009AFA
:1057E80003E0043B013D934202D919680029F8D02F
:1057F80043461D614046019901F01AFF002830DB3D
:10580800002301341F00A446009902980B6810C8B1
:105818001A04120CD7192204120CBA1A1B0C270CE2
:10582800DB1B1714DB1912041F14120C1B0413437F
:1058380008C18642EAD2009A64469446AB006344A3
:10584800196800290DD1043B934208D9009A03E056
:10585800043B013D934202D919680029F8D0434618
:105868001D61200005B03CBC90469946A246AB4657
:10587800F0BD0020F6E7C046F0B557464E4645460F
:10588800DE461400E0B51D00016C9BB0824604940E
:105898000595279E002909D00123426C93404A6050
:1058A8008B6001F089FC0023524613642F1E00DA36
:1058B80002E200233A003360C04B1A409A4200D1FA
:1058C80005E2049A059B10001900002200230A90A3
:1058D8000B91FAF797FD002812D00123269A13603E
:1058E800289B002B00D121E3B5481860431E039381
:1058F80003981BB03CBC90469946A246AB46F0BD07
:1059080018AB019319AB009350460A9A0B9B01F010
:1059180055FF3E0D834600D0EBE1189B9846199B36
:1059280043441E00A74BF318202B01DC00F00FFCAA
:1059380040223800D31A9840A34BF218D440204391
:10594800FCF76CFC0123A14C013E09190F930022BE
:105958009F4BFCF74DF89F4A9F4BFBF7DDFD9F4A95
:105968009F4BFAF769FE040030000D00FCF726FC97
:105978009C4A9D4BFBF7D0FD02000B00200029003C
:10598800FAF75AFE04000D00FCF7E2FB00220700BC
:105998000690002320002900FAF73AFD00280AD0D3
:1059A8003800FCF70BFC2B002200FAF72BFD4342D2
:1059B80058413B1A0693069C162C00D992E20A9885
:1059C8000B998A4BE2009B181A685B68FAF720FD6E
:1059D800002800D15FE200230E9343469E1B00235C
:1059E8000C933300013C0694013B089300D584E2F4
:1059F800069B002B00DB58E2069B0C9A0993D21AEF
:105A08000C925A4200230693249B9146092B00D9F5
:105A180058E20125052B02DD0025043B2493249B35
:105A2800042B01D100F0C2FC052B01D100F07BFC56
:105A3800022B00D067E200230D93259B002B01DC8D
:105A480000F08AFC1C001493079300235246536409
:105A580001220433172C01DC00F0CAFE5B00180099
:105A6800143011000132A042F8D95346079C5964FA
:105A7800504601F079FB5346039018640E2C00D968
:105A880052E1002D00D14FE10998002801DC00F017
:105A9800EEFC0F210200554B0A40D2009B1806115C
:105AA8001C685D68C30501D500F072FC0A9A0B9B5F
:105AB8001092119302239846002E11D04C4F0123C7
:105AC800334209D09C463A687B6820002900E044AC
